:100000000C94A7000C9484020C9483010C94AC0112
:100010000C94C4000C94C4000C94C4000C94C40050
:100020000C94C4000C94C4000C94C4000C94C40040
:100030000C94C4000C94C4000C94C4000C94C40030
:100040000C94C4000C94C4000C94C4000C94C40020
:100050000C94C40000407A10F35A00A0724E1809A4
:100060000010A5D4E80000E87648170000E40B541F
:10007000020000CA9A3B000000E1F50500008096EE
:100080009800000040420F000000A0860100000020
:10009000102700000000E8030000000064000000DA
:1000A00000000A00000000000100000000002C76A3
:1000B000D888DC674F0823DFC1DFAE59E1B1B796BE
:1000C000E5E3E453C63AE651997696E8E6C284261B
:1000D000EB898C9B62ED407C6FFCEFBC9C9F40F2F7
:1000E000BAA56FA5F490055A2AF75C936B6CF96773
:1000F0006DC11BFCE0E40D47FEF520E6B500D0ED38
:10010000902E0300943577050080841E080000209F
:100110004E0A000000C80C333333330F986E12833D
:100120001141EF8D2114893BE65516CFFEE6DB1811
:10013000D1844B381BF77C1D901DA4BBE4242032D6
:1001400084725E228100C9F124ECA1E53D271124CF
:100150001FBECFE5D8E0DEBFCDBF10E0A0E6B0E027
:10016000ECE4F5E102C005900D92A23EB107D9F78B
:1001700011E0A2EEB0E001C01D92AF31B107E1F78E
:100180000E9481050C94A40A0C9400008A988B9814
:10019000BA988BB7806E8BBF85B78F6085BF84B7E9
:1001A000806484BF08959B01AC018AB188618AB9DB
:1001B00080B5866880BD64E0220F331F441F551F41
:1001C0006A95D1F760E072E18AE790E00E94A007AB
:1001D000C901DA01215029B90197A109B109892F73
:1001E0009A2FAB2FBB2780BD08955F9BFECF8CB1AC
:1001F00008955D9BFECF8CB9089520E004C05D9BFF
:10020000FECFECB92F5FFC01E20FF11DE081EE2380
:10021000B1F70895EF92FF920F931F936091D3006F
:100220007091D400E090D900F090DA000091DB00EA
:100230001091DC00882777FD8095982F0E94890611
:10024000A80197010E941B06882314F4DC9A11C0B0
:100250006091D3007091D400882777FD8095982F06
:100260000E948906A80197010E94390718160CF40C
:10027000DC986091D3007091D400882777FD809539
:10028000982F0E948906A80197010E943907181625
:1002900014F4DD9A01C0DD986091D5007091D6000C
:1002A000882777FD8095982F0E9489062091DD0090
:1002B0003091DE004091DF005091E0000E941B066B
:1002C000882314F4DE9A01C0DE986091D700709103
:1002D000D800882777FD8095982F0E948906209165
:1002E000E7003091E8004091E9005091EA000E9457
:1002F0001B06882314F4DF9A01C0DF981F910F9129
:10030000FF90EF9008951F920F920FB60F92112455
:100310008F938091E200823071F0833028F488233B
:1003200081F0813099F408C0843059F0843018F09D
:10033000853061F406C081E08093E3001092D20022
:1003400005C01092E30081E08093D2008F910F905E
:100350000FBE0F901F9018951F920F920FB60F921D
:1003600011248F939F938091D200882339F51092A6
:10037000E30081E08093D2008091E200823069F056
:100380008330A1F08130D1F48091E4009091E500B8
:100390009093D4008093D30011C08091E400909199
:1003A000E5009093D6008093D50008C08091E400CA
:1003B0009091E5009093D8008093D7009F918F9102
:1003C0000F900FBE0F901F9018958FEF84BB81B3D5
:1003D000806E81BBB898B99880EF8ABB089587E892
:1003E00086B9089580E487B9369A349BFECF349A53
:1003F00024B135B1C901089581E487B9369A349B97
:10040000FECF349A24B135B1C901089582E487B989
:10041000369A349BFECF349A24B135B1C901089580
:1004200085BB95989698979A82E08A95F1F7979868
:1004300080E797E10197F1F7089585BB959A969823
:10044000979A82E08A95F1F7979880ED97E0019767
:10045000F1F7089580E49CE90197F1F788E30E94A1
:1004600010028CE00E94100286E00E94100281E0DF
:100470000E94100280E80E9410020895EF92FF92FD
:100480000F931F93CF93DF937C01C0E0D0E0062F42
:1004900010E007C0F701EC0FFD1F80810E941D02D4
:1004A0002196C017D107B4F3DF91CF911F910F911F
:1004B000FF90EF9008951F93CF93DF93EA01122FDF
:1004C000813031F4603188F46F70862F806807C006
:1004D000823059F4603148F46F70862F806C0E942E
:1004E0001002CE01612F0E943E0280ED97E001973D
:1004F000F1F7DF91CF911F91089581E00E941002E2
:1005000080E80E94100208951F920F920FB60F927A
:1005100011242F933F934F935F936F937F938F9308
:100520009F93AF93BF93EF93FF938091E30081304C
:10053000A9F10E947D028091E2008230B1F0833007
:1005400028F4882341F1813049F507C0843009F14E
:10055000843098F0853011F51EC082E08093E2006F
:100560008091D3009091D4000FC083E08093E2008B
:100570008091D5009091D60007C084E08093E2007E
:100580008091D7009091D8009093E5008093E4008B
:1005900005C085E001C081E08093E200FF91EF910A
:1005A000BF91AF919F918F917F916F915F914F918B
:1005B0003F912F910F900FBE0F901F9018950F93A2
:1005C0001F930E94060290931E0180931D01AA278B
:1005D00097FDA095BA2FBC01CD010E94890620E0AD
:1005E00030E048EC52E40E943D0720E030EC4FE759
:1005F00054EC0E941F0620E030E048EC52E40E94D8
:10060000B7059B01AC012093F8003093F9004093AB
:10061000FA005093FB0043E021E003E011E00E9468
:10062000C207C80160E670E00E94E3078091E20023
:10063000853031F482E064E0A80124E00E945B028E
:100640008AE0E3E0F1E0DF011D928A95E9F784EFAB
:1006500091E028EC30E0F9013197F1F70197D9F7F3
:100660002091F8003091F9004091FA005091FB0080
:10067000B901CA011F910F9108950F931F930E9412
:10068000FC019093F6008093F500AA2797FDA095B2
:10069000BA2FBC01CD010E94890620E030E048EC71
:1006A00052E40E943D0720E030EC4FE754EC0E94FA
:1006B0001F0620E030E048EC52E40E94B7059B01A1
:1006C000AC012093FC003093FD004093FE0050935A
:1006D000FF0043E021E002E111E00E94C207C801EF
:1006E00060E670E00E94E3078091E200843031F41C
:1006F00082E064E0A80125E00E945B028AE0E2E17A
:10070000F1E0DF011D928A95E9F784EF91E028EC92
:1007100030E0F9013197F1F70197D9F72091FC000A
:100720003091FD004091FE005091FF00B901CA01D7
:100730001F910F9108950F931F930E94F2019093C0
:10074000020180930101AA2797FDA095BA2FBC0151
:10075000CD010E94890620E030E048EC52E40E947E
:100760003D0720E030EC4FE754EC0E941F0620E0EC
:1007700030E048EC52E40E94B7059B01AC012093A5
:10078000E7003093E8004093E9005093EA0043E02B
:1007900021E00BEE10E00E94C207C80160E670E0A5
:1007A0000E94E3078091E200833031F482E064E04C
:1007B000A80125E00E945B028AE0EBEEF0E0DF0199
:1007C0001D928A95E9F784EF91E028EC30E0F90179
:1007D0003197F1F70197D9F72091E7003091E800C0
:1007E0004091E9005091EA00B901CA011F910F91AF
:1007F0000895EF92FF920F931F93DF93CF93CDB79E
:10080000DEB76E970FB6F894DEBF0FBECDBF45E0E2
:1008100023E07E010894E11CF11C87010E94C207BD
:10082000C7010E94FD008AE0F70111928A95E9F75D
:100830006E960FB6F894DEBF0FBECDBFCF91DF919D
:100840001F910F91FF90EF9008956091D9007091E2
:10085000DA008091DB009091DC000E94F90385E6CC
:1008600090E00E94FD006091DD007091DE008091BB
:10087000DF009091E0000E94F90387E690E00E947B
:10088000FD006091E7007091E8008091E90090918F
:10089000EA000E94F90389E690E00E94FD00609161
:1008A000FC007091FD008091FE009091FF000E947D
:1008B000F9038BE690E00E94FD006091F8007091D2
:1008C000F9008091FA009091FB000E94F9038DE6F7
:1008D00090E00E94FD008FE690E00E94FD0080E124
:1008E00097E228EC30E0F9013197F1F70197D9F759
:1008F00008950F931F93DF93CF9300D00F92CDB73E
:10090000DEB7833009F449C0843030F4813059F0C7
:10091000823009F08CC024C0843009F467C085306F
:1009200009F085C068C081E060E041E750E02DE05B
:100930000E945B0282E060E04FE750E024E00E940A
:100940005B0282E069E044E850E024E00E945B0240
:100950008091D3009091D4008E010F5F1F4F39C05A
:1009600081E060E049E850E02FE00E945B0282E015
:1009700060E04FE750E024E00E945B0282E069E023
:1009800044E850E024E00E945B028091D500909101
:10099000D6008E010E5F1F4F1CC081E060E049E968
:1009A00050E02FE00E945B0282E060E04FE750E001
:1009B00024E00E945B0282E069E044E850E024E029
:1009C0000E945B028091D7009091D8008E010D5F4C
:1009D0001F4FB8014AE050E00E94EE078091E3000B
:1009E000882329F582E06DE0A8011EC081E060E067
:1009F00049EA50E004C081E060E04DEB50E02FE0B8
:100A00000E945B0282E060E04FE750E024E00E9439
:100A10005B0282E069E044E850E024E00E945B026F
:100A200082E06DE049EB50E023E00E945B020F9012
:100A30000F900F90CF91DF911F910F9108950F9319
:100A40001F93DF93CF930F92CDB7DEB79091E30062
:100A5000913009F050C04AC0B09B03C01092000111
:100A600002C0909300019091000180910D019817B0
:100A700099F1B19B03C01092F70003C081E080930D
:100A8000F700909100018091F700981731F0809164
:100A9000E4009091E500019605C08091E4009091FA
:100AA000E50001979093E5008093E4008091E300D6
:100AB000813091F48091E4009091E5008E010F5F08
:100AC0001F4FB8014AE050E00E94EE0782E06DE05F
:100AD000A80123E00E945B028091000180930D0138
:100AE0002091E4003091E500C90105C08091D20059
:100AF000813009F0B1CF0F90CF91DF911F910F910D
:100B000008950E94C600789460E875E280E090E065
:100B10000E94D3000E94E5010E942A0287E886B95C
:100B20000E947D028091E2006091E4007091E500F6
:100B30000E9479048091E3008823A9F48091E20067
:100B4000823031F464E04DEC50E024E00E945B021E
:100B50000E949B030E943D030E94DF020E940A0143
:100B60000E942504DFCF0E941F05DCCF5058BB2711
:100B7000AA270ED044C135D130F03AD120F031F45B
:100B80009F3F11F41EF42AC10EF4E095E7FB20C14B
:100B9000E92F46D180F3BA176207730784079507D8
:100BA00018F071F49EF55EC10EF4E0950B2EBA2F8D
:100BB000A02D0B01B90190010C01CA01A001112463
:100BC000FF27591B99F0593F50F4503E68F11A160F
:100BD000F040A22F232F342F4427585FF3CF4695A0
:100BE00037952795A795F0405395C9F77EF41F16C2
:100BF000BA0B620B730B840BBAF09150A1F0FF0F8C
:100C0000BB1F661F771F881FC2F70EC0BA0F621F77
:100C1000731F841F48F4879577956795B795F79567
:100C20009E3F08F0B3CF9395880F08F09927EE0FF9
:100C3000979587950895A8D008F481E008950CD081
:100C4000DEC0D6D040F0CDD030F021F45F3F19F0B7
:100C5000BFC0511108C1C2C0E3D098F39923C9F3B2
:100C60005523B1F3951B550BBB27AA2762177307B2
:100C7000840738F09F5F5F4F220F331F441FAA1F66
:100C8000A9F333D00E2E3AF0E0E830D09150504026
:100C9000E695001CCAF729D0FE2F27D0660F771FD4
:100CA000881FBB1F261737074807AB07B0E809F0B6
:100CB000BB0B802DBF01FF2793585F4F2AF09E3F4B
:100CC000510568F085C0CFC05F3FECF3983EDCF380
:100CD000869577956795B795F7959F5FC9F7880FC4
:100CE000911D9695879597F90895E1E0660F771F16
:100CF000881FBB1F621773078407BA0720F0621BA7
:100D0000730B840BBA0BEE1F88F7E0950895E894F7
:100D100009C097FB3EF490958095709561957F4F43
:100D20008F4F9F4F9923A9F0F92F96E9BB279395F1
:100D3000F695879577956795B795F111F8CFFAF401
:100D4000BB0F11F460FF1BC06F5F7F4F8F4F9F4F32
:100D500016C0882311F096E911C0772321F09EE890
:100D6000872F762F05C0662371F096E8862F70E0F6
:100D700060E02AF09A95660F771F881FDAF7880FD0
:100D80009695879597F90895990F0008550FAA0B26
:100D9000E0E8FEEF16161706E807F907C0F012168E
:100DA0001306E407F50798F0621B730B840B950B91
:100DB00039F40A2661F0232B242B252B21F40895E6
:100DC0000A2609F4A140A6958FEF811D811D089583
:100DD00097F99F6780E870E060E008959FEF80ECEE
:100DE000089500240A941616170618060906089591
:100DF00000240A9412161306140605060895092EF7
:100E00000394000C11F4882352F0BB0F40F4BF2B65
:100E100011F460FF04C06F5F7F4F8F4F9F4F0895A5
:100E200057FD9058440F551F59F05F3F71F047959B
:100E3000880F97FB991F61F09F3F79F08795089580
:100E4000121613061406551FF2CF4695F1DF08C09F
:100E5000161617061806991FF1CF869571056105BC
:100E600008940895E894BB2766277727CB0197F964
:100E700008958ADF08F48FEF08950BD0C0CFB1DF5B
:100E800028F0B6DF18F0952309F0A2CFA7CF1124E0
:100E9000EACFC6DFA0F3959FD1F3950F50E0551F21
:100EA000629FF001729FBB27F00DB11D639FAA27BF
:100EB000F00DB11DAA1F649F6627B00DA11D661F0E
:100EC000829F2227B00DA11D621F739FB00DA11D2F
:100ED000621F839FA00D611D221F749F3327A00DE9
:100EE000611D231F849F600D211D822F762F6A2F85
:100EF00011249F5750408AF0E1F088234AF0EE0F0A
:100F0000FF1FBB1F661F771F881F91505040A9F716
:100F10009E3F510570F05CCFA6CF5F3FECF3983E4B
:100F2000DCF3869577956795B795F795E7959F5F7D
:100F3000C1F7FE2B880F911D9695879597F9089517
:100F4000A1E21A2EAA1BBB1BFD010DC0AA1FBB1FCD
:100F5000EE1FFF1FA217B307E407F50720F0A21B3F
:100F6000B30BE40BF50B661F771F881F991F1A94AC
:100F700069F760957095809590959B01AC01BD01D6
:100F8000CF010895EF92FF920F931F93F22FF02E4F
:100F900047FD02C0E4E001C0E4E1242F332727FD30
:100FA000309537FF03C0309521953F4F4F2D512F7E
:100FB0000F2FEE2E0E940F088F2D912F1F910F9152
:100FC000FF90EF900895FB01DC010D900020E9F700
:100FD000119701900D920020E1F70895FB019F0108
:100FE000E8944230C4F04532B4F44A3029F497FB17
:100FF0001EF4909581959F4F642F77270E94590A80
:10100000805D8A330CF0895D8193CB010097A1F755
:1010100016F45DE251931082C9010C94490AA9E0CB
:10102000B0E0E5E1F8E00C94710A6A01122FA02EFD
:10103000BE2C2BE3201718F42CE3922E02C0902E26
:101040009394AE014F5F5F4F27E0092D0E94710915
:10105000BC018981E82EFF24C70189709070019737
:1010600011F4ADE209C0B1FE02C0ABE205C0B0FCB4
:1010700002C0A0E001C0A0E2E3FE3BC0AA2311F43D
:1010800023E001C024E0211710F020E002C0121B71
:10109000212FEB2CB4FE02C0322F0AC0F601322FF2
:1010A00080E202C0819331503323E1F7C20ED11C9C
:1010B000AA2319F0F601A1936F01F6013196E2FE21
:1010C00005C09EE4D6019C9381E404C09EE6D6014F
:1010D0009C9381E611968C9391833296DF01832F46
:1010E00090E202C09D9381508823E1F7E30FF11D48
:1010F00040C0E2FE42C0AA2311F423E001C024E074
:10110000211710F020E002C0121B212FEB2CB4FE9F
:1011100002C0922F0AC0F601922F80E202C0819392
:1011200091509923E1F7C20ED11CAA2319F0F601C0
:10113000A1936F01F6013196E2FE08C089E4D60161
:101140008C938EE411968C9386E407C089E6D601D1
:101150008C938EE611968C9386E681833296DF011E
:10116000892F20E202C02D9381508823E1F7E90FF7
:10117000F11D10822EEF3FEFAFC0161617061CF0C0
:1011800041E050E003C0AB014F5F5F4FAA2019F46C
:1011900080E090E003C08A2D90E0019620E030E0EE
:1011A000AA2311F021E030E0240F351F280F391F4A
:1011B000812F90E02817390714F020E002C0121B9D
:1011C000212F4B2D50E0CA0180719070B4FC0DC0EE
:1011D000B3FC0BC0F601322F40E202C04193315004
:1011E0003323E1F7C20ED11C01C0322FAA2319F01C
:1011F000F601A1936F01892B11F0132F0AC0F6019C
:10120000132F80E302C0819311501123E1F7C30E25
:10121000D11C092D060FBA8090E1892E912C8E20C9
:101220009F20E4FE04C0F1E3BF1609F4015010163C
:1012300014F001E003C0093008F008E09B0177FFDB
:1012400002C020E030E0CB010196821B930BFE012F
:101250003196E80FF91F8EE2F82E3B01601A7108F3
:101260008A2D90E044275527481B590B8FEF2F3FBD
:10127000380719F4D601FD926D01621773072CF03F
:101280006216730614F4808101C080E3215030405F
:1012900031962417350724F0D6018D936D01E6CFE2
:1012A0002617370749F4B5E3BB1528F0BB1621F420
:1012B0008114910409F481E3F6018193D601812F11
:1012C00090E202C09C93815011968823D9F7E10FD8
:1012D000F11D108220E030E0C9012996EEE00C9467
:1012E0008D0A283008F027E03327DA01990F311DE5
:1012F00087FD916000966105710539F432602E5FBB
:101300003D9330E32A95E1F708959F3F30F0803810
:101310007105610509F03C5F3C5F3D93913008F039
:101320008068911DDF93CF931F930F93FF92EF92ED
:10133000192F987F9695E92F96959695E90FFF2797
:10134000E255FF4F99273327EE24FF24A701E70139
:1013500005900894079428F4360FE71EF81E491FDD
:10136000511D660F771F881F991F0694A1F70590DE
:10137000079428F4E70EF81E491F561FC11D770F6A
:10138000881F991F661F0694A1F70590079428F4FB
:10139000F80E491F561FC71FD11D880F991F661FC2
:1013A000771F0694A1F70590079420F4490F561F64
:1013B000C71FD81F990F661F771F881F0694A9F7AC
:1013C00084911095177041F0D695C795579547951C
:1013D000F794E7941A95C1F7E4E5F0E06894159066
:1013E000159135916591959105907FE27395E1187E
:1013F000F10A430B560BC90BD009C0F7E10CF11EE3
:10140000431F561FC91FD01D7EF4703311F48A95F7
:10141000E6CFE894015030F0080F0AF400270217D5
:1014200008F4202F2395022F7A3328F079E37D9357
:101430002A95E9F710C07D932A9589F60694979529
:101440006795379517951794E118F10A430B560BDA
:10145000C90BD00998F023957E9173957A3308F0E3
:1014600070E37C932013B8F77E9170617D9330F028
:10147000839571E37D9370E32A95E1F71124EF9052
:10148000FF900F911F91CF91DF91992787FD909544
:101490000895DC01FC01672F71917723E1F7329702
:1014A00004C07C916D9370836291AE17BF07C8F33F
:1014B0000895AA1BBB1B51E107C0AA1FBB1FA6179B
:1014C000B70710F0A61BB70B881F991F5A95A9F7ED
:1014D00080959095BC01CD0108952F923F924F9237
:1014E0005F926F927F928F929F92AF92BF92CF92B4
:1014F000DF92EF92FF920F931F93CF93DF93CDB7BD
:10150000DEB7CA1BDB0B0FB6F894DEBF0FBECDBF34
:1015100009942A88398848885F846E847D848C8405
:101520009B84AA84B984C884DF80EE80FD800C810E
:101530001B81AA81B981CE0FD11D0FB6F894DEBFF1
:0C1540000FBECDBFED010895F894FFCF61
:10154C002520202000410042004300440045000AB1
:10155C0000202054454D5045524154555245004EA3
:10156C006F773A005365743A002020414952204865
:10157C00554D4944495459200020534F494C202083
:10158C004D4F495354555245004C494748542049F6
:10159C004E54454E53495459004E4F200020204381
:1015AC004F20474153204C4556454C200035362E94
:1015BC003800011E0014000A0000000C420000C894
:0215CC004100DC
:00000001FF
